:020000040800F2
:10000000580B0020E9020008A3210008A1200008E5
:10001000A1210008DF0400082D27000800000000CF
:10002000000000000000000000000000290200089D
:100030009D0500080000000085020008A5210008B9
:100040000303000803030008030300080303000878
:100050000303000803030008030300080303000868
:100060000303000803030008030300080303000858
:10007000ED0400080303000803030008030300085D
:100080000303000803030008030300080303000838
:10009000E104000803030008030300080303000849
:1000A0000303000875220008030300080303000887
:1000B0000303000803030008030300080303000808
:1000C00003030008030300080303000803030008F8
:1000D00003030008030300080303000821270008A6
:1000E00003030008030300080303000803030008D8
:1000F00003030008030300080303000803030008C8
:1001000003030008030300080303000803030008B7
:1001100003030008030300080303000803030008A7
:100120000303000803030008030300080303000897
:100130000303000803030008030300080303000887
:100140000303000803030008030300080303000877
:100150000303000803030008030300080303000867
:100160000303000803030008030300080303000857
:100170000303000803030008030300080000000055
:10018000030300080303000800F002F800F03CF845
:100190000AA090E8000C82448344AAF10107DA45E2
:1001A00001D100F031F8AFF2090EBAE80F0013F0F8
:1001B000010F18BFFB1A43F001031847282D000058
:1001C000482D0000103A24BF78C878C1FAD85207E9
:1001D00024BF30C830C144BF04680C6070470000C1
:1001E0000023002400250026103A28BF78C1FBD840
:1001F000520728BF30C148BF0B6070471FB502F0DF
:100200005BFE1FBD10B510BD00F02FF91146FFF7C2
:10021000F5FF02F05BFB00F04DF903B4FFF7F2FFCE
:1002200003BC00F055F900002C4B19680868B0E8D1
:10023000F04F80F30988BFF36F8F4FF0000080F319
:10024000118870470000000008480068006880F3CB
:1002500008884FF0000080F3148862B661B6BFF3DF
:100260004F8FBFF36F8F00DF00BF00BF08ED00E0CE
:10027000DFF80C00016841F470010160704700BFB5
:1002800088ED00E0EFF30980BFF36F8F134B1A681E
:100290001EF0100F08BF20ED108A20E9F04F10600B
:1002A00009B44FF0500080F31188BFF34F8FBFF3B4
:1002B0006F8F02F06DFD4FF0000080F3118809BCD4
:1002C00019680868B0E8F04F1EF0100F08BFB0ECD6
:1002D000108A80F30988BFF36F8F704714000020E5
:1002E000EFF3058070470000094880470948004740
:1002F000FEE7FEE7FEE7FEE7FEE7FEE7FEE7FEE7D6
:10030000FEE7FEE704480549054A064B7047000032
:10031000652200088901000858050020580B0020BC
:10032000580700205807002053EA020C00F06980AB
:100330002DE9F04B4FF00006002B1FBFB3FA83F5F9
:1003400003FA05F424FA05F65E4012BF1643B2FA2A
:1003500082F502FA05F4C5F120051EBF22FA05FC5C
:1003600044EA0C04203556EA044C4FEA144418BF02
:10037000641C4FF000084FF00009904271EB030C31
:1003800039D3002919BFB1FA81F701FA07F6B0FA9B
:1003900080F700FA07F6C7F120071EBF20FA07FC16
:1003A00046EA0C062037B6FBF4FCA7EB0507103F26
:1003B00007F01F0BCBF120060CFA0BFB2CFA06F60C
:1003C00044BFB3460026202FA4BF5E464FF0000B6B
:1003D0005BEA060C08BF4FF0010B19EB0B09ABFBF6
:1003E000027C48EB0608C01B06FB02CC0BFB03CCCF
:1003F00071EB0C01C1E70B46024641464846BDE899
:10040000F08B13B54FF000004FF00001AFF3008008
:10041000BDE81C4070474FF0000200B513469446FB
:100420009646203922BFA0E80C50A0E80C50B1F14C
:100430002001BFF4F7AF090728BFA0E80C5048BF60
:100440000CC05DF804EB890028BF40F8042B08BFFE
:10045000704748BF20F8022B11F0804F18BF00F8FA
:10046000012B7047704770477047754600F02CF8B5
:10047000AE4605006946534620F00700854618B091
:1004800020B5FFF73FFFBDE820404FF000064FF0DA
:1004900000074FF000084FF0000B21F00701AC46B9
:1004A000ACE8C009ACE8C009ACE8C009ACE8C009D8
:1004B0008D46704710B50446AFF300802046BDE876
:1004C0001040FFF7AABE000000487047F804002063
:1004D00001491820ABBEFEE7260002007047FEE788
:1004E000014800F0DAB90000EC010020014800F0FA
:1004F000A5BC00005C02002001681823CAB2103AB3
:10050000B2FBF3F2054B6FF30901032A9B5CC36551
:1005100000D9091D8165084670470000C22E0008F9
:1005200010B5014600208B698A6A4FF0C07453B140
:10053000B3F5005F15D072B1012A0CD0022A0AD09F
:10054000032A09D104E01AB1012A06D0022A03D1F4
:10055000C96AC90100D5012010BDC96AA142FAD0FB
:1005600010BD002AF7D0012AF2D0022AF3D0032AC4
:10057000F3D010BD30B50468256825F480252560CA
:10058000046863608368402B036803D09960006847
:10059000C26030BD9A600068C16030BD704772B6FD
:1005A000FEE790F82020012A07D0022A05D0416AF0
:1005B00041F48021416201207047006842690A438A
:1005C000426100207047F0B590F820500468A4689C
:1005D000012D05D0022D03D0416A41F4802157E05E
:1005E00014F0406F01D1E5004FD5C4F3016401253B
:1005F000A5401D608D684FF4C0739DB1CE68354332
:100600004E6845EAC605066803EB0417F5514FF43A
:10061000C275076805EB04150E697E51097D012935
:1006200005D009E00E88CD6845EA4655EBE701683C
:100630004E5946F480764E511179D579567941EA72
:10064000056195792D0445EA062529434FF4C676C0
:10065000056806EB0416A9511178D57841EA0561C1
:10066000957852782D0445EA022211434FF4C4755F
:10067000026805EB04155151006803EB0411425860
:1006800042F0010242500020F0BD416A41F40011E5
:1006900041620120F0BD000010B590F82020012A31
:1006A00007D0022A05D0416A41F48021416201202D
:1006B00010BD3B48D0F8002242F00102C0F80022F1
:1006C000D0F8002222F47C52C0F80022D0F8002298
:1006D0004B6A42EA0322C0F800220A7D02F01F039F
:1006E00001229A40D0F81C329343C0F81C32CB69E7
:1006F000B3B9D0F80C329343C0F80C328C894B68F4
:1007000064F31F434C6900EBC404C4F840320C8905
:100710000B6864F31F434C6900EBC404C4F8443213
:10072000CB69012B16D1D0F80C321343C0F80C3230
:100730000C884B6864F31F434C6900EBC404C4F895
:1007400040320C89CB6864F31F434C6900EBC4044E
:10075000C4F844328B69002BD0F804320ED0134316
:10076000C0F804320B69002BD0F8143208D01343C0
:10077000C0F81432096A012904D008E09343EFE776
:100780009343F5E7D0F81C121143C0F81C12D0F8BF
:10079000001221F00101C0F80012002010BD00007D
:1007A00000640040704770B590F82040012C05D0DF
:1007B000022C03D0416A41F4802128E0046809B387
:1007C0002469A40720D04FF4D874056804EB011401
:1007D0002D5915F00405956005682D591AD0ED08BE
:1007E000556005682C5904F00204D4604FF4DA74A3
:1007F000056804EB01142E5906F00F06082E0CD3E1
:1008000008250DE0E468DCE7416A41F4001141622B
:10081000012070BD6D0D1560E3E72D5905F00F0542
:10082000156105682D59C5F30725956105682C5993
:10083000240C54614FF4DC72046802EB0112A458DA
:100840001C700468A458240A5C700468A458240C22
:100850009C700468A258120EDA704FF4DE720468BD
:1008600002EB0112A4581C710468A458240A5C719C
:100870000468A458240C9C710468A258120EDA7102
:10088000006829B1016941F020010161002070BDBB
:10089000C16841F02001C160F8E72DE9F05F05462D
:1008A000006800244669D0F804908768D0F80CB03E
:1008B000D0F810A0D0F81880F10748D0F90714D06C
:1008C00001218160B80703D5284600F056FA0CE0F4
:1008D000780702D54FF4006407E0380702D54FF4DB
:1008E000805402E0284600F047FAF80516D529683A
:1008F0004FF480708860B80503D5284600F03FFAB1
:100900000CE0780502D544F4005407E0380502D520
:1009100044F4804402E0284600F030FAF80316D58B
:1009200029684FF480308860B80303D5284600F06A
:1009300028FA0CE0780302D544F4004407E03803B9
:1009400002D544F4803402E0284600F019FA30075A
:1009500007D55FEACB6004D52968102044F4007401
:10096000C86070074FF0080707D55FEA0B7004D521
:100970002868C760284600F057F9B00706D52868F0
:10098000C068800702D0284600F050F9700607D5ED
:100990005FEACA6004D52968102044F480640861C5
:1009A000B00607D55FEA0A7004D5286807612846B3
:1009B00000F0B2F9F00606D528680069800702D079
:1009C000284600F0AAF9B00308D55FEAC96005D54A
:1009D000296810204860284600F0A0F9F00307D5E8
:1009E0005FEA097004D528684760284600F0CAF914
:1009F000300446D55FEA497040D5F00504D55FEA7A
:100A0000C87001D044F00104B00504D55FEA8870D5
:100A100001D544F00204700504D55FEA487001D5A1
:100A200044F00404300529D518F0700F26D008F0E2
:100A30007000402815D006DC102809D020280AD0E4
:100A4000302816D10AE050280ED0602811D10EE0CF
:100A500044F008040DE044F010040AE044F02004DF
:100A600007E044F0400404E044F0800401E044F472
:100A700080742868816921F07001816129680420EF
:100A80004860002C05D0686A204368622846FFF75A
:100A900089FEBDE8F09F70B5040003D094F82000F3
:100AA00010B104E0012070BD204600F081F82068FC
:100AB000016841F00101016000F03CFC054605269B
:100AC00004E000F037FC401B0A2811D82068406879
:100AD000C007F6D02068016821F00201016000F033
:100AE00029FC05460BE000F025FC401B0A2806D92E
:100AF000606A40F40030606284F82060D2E72068C9
:100B000040688007EFD4207E0128206801683DD02E
:100B100021F080010160607E01282068016838D0E2
:100B200021F040010160A07E01282068016833D0D7
:100B300021F020010160E07E0128206801682ED0AC
:100B400041F010010160207F01282068016829D050
:100B500021F008010160607F01282068016824D02D
:100B600021F004010160D4E902010843D4E9041230
:100B7000114308436168491E08432168C861002089
:100B80006062012084F82000002070BD41F08001E7
:100B9000C0E741F04001C5E741F02001CAE721F07C
:100BA0001001CFE741F00801D4E741F00401D9E793
:100BB00010B586B0044614216846FFF72CFC17498F
:100BC0002068884227D116480021026842F000724E
:100BD0000260006800F0007005901148103802684B
:100BE00042F0080202600068022200F0080005904E
:100BF0000320CDE90210CDE90002092004906946E6
:100C0000084800F09FFA00220521142000F02AFC79
:100C1000142000F019FC06B010BD00000064004074
:100C200040380240000C02407047000030B589B0E7
:100C3000044640F2012002900020039004900590A9
:100C40000820069000F076FB2F4D2968401AB0F579
:100C5000FA7F02D900F06EFB28606B4602AA0021E1
:100C60002046FFF7A0FD0298A0F50070013806D0DD
:100C7000012806D0022806D0032807D105E0002469
:100C800004E0012402E0022400E003241F4804EBF6
:100C9000440100EB0110F1EE040A8289C281BDF823
:100CA000001049BA8181BDF802308A1A5BBA03800C
:100CB000BDF80430B2F5805F5BBA00EE103AB8EED2
:100CC000400A20EE200ADFED120A20EE200A80ED15
:100CD000010A9DF80630837202DD4269521E04E06B
:100CE00012F5805F426901DA521C426101EB423128
:100CF000028A891A816107480068416941F002014E
:100D0000416109B030BD00005800002038040020C7
:100D100000008038EC0100207047704770470000E9
:100D200070B5044690F82000012804D0606A40F4B1
:100D30000020606218E0022084F82000206801682A
:100D400021F00101016000F0F5FA05460EE000BF58
:100D500000F0F0FA401B0A2808D9606A40F400301D
:100D60006062052084F82000012070BD2068406882
:100D7000C007EDD1606270BD704770477047704723
:100D80007047704770472DE9F0410446876D00F0C9
:100D9000D1FA064694F835000025022806D08020B6
:100DA000606584F834500120BDE8F0812068016856
:100DB00021F0160101602068416921F08001416144
:100DC000206C08B9A06C20B12068016821F00801EE
:100DD00001602068016821F0010101600CE000F071
:100DE000A9FA801B052807D920206065032084F814
:100DF000350084F83450D7E720680068C007EED18A
:100E000094F85C103F208840B860012084F83500D9
:100E100084F834500020C7E790F83510022903D039
:100E20008021416501207047052180F83510006858
:100E3000016821F001010160002070472DE9F843AD
:100E400004464FF00009CDF8009063484FF4165166
:100E5000A56D0068B0FBF1F72E6894F85C100820CF
:100E600000FA01F131420FD021680A6852070BD510
:100E70000A6822F004020A6094F85C108840A860B6
:100E8000606D40F00100606594F85C104FF001085F
:100E900008FA01F0304208D021684969090604D5F2
:100EA000A860606D40F00200606594F85C1004205A
:100EB0008840304208D021680968890704D5A860B5
:100EC000606D40F00400606594F85C10102088406C
:100ED000304218D021680968090714D5A860206835
:100EE0000168490304D50068000308D5A16C07E038
:100EF0000168C90503D4016821F008010160216C73
:100F000009B12046884794F85C1020208840304280
:100F100031D021680968C9062DD5A86094F835003C
:100F200005282068016806D0490347D500680003FA
:100F30001DD4616C1CE021F016010160206841693C
:100F400021F080014161206C08B9A06C20B12068BB
:100F5000016821F00801016094F85C103F2088408E
:100F6000A86084F8358084F83490216D1FE0E16B2F
:100F700009B120468847606D00282BD0606DC007FE
:100F800014D0052084F835002068016821F00101A3
:100F900001600098401C0090B84203D820680068A7
:100FA000C007F6D184F8358084F83490E16C0029CC
:100FB00010D001B02046BDE8F04308470168C905DC
:100FC000D5D4016821F01001016084F8358084F8DF
:100FD0003490CCE7BDE8F883100000202DE9F04103
:100FE000044600F0A7F906465CB1022084F83500FB
:100FF000002584F834502068016821F00101016067
:101000000DE00120BDE8F08100F094F9801B052877
:1010100005D920206065032084F83500F2E72068B8
:101020000068C007F0D12268116820480140D4E967
:1010300001031843D4E90336334318436369184363
:10104000A3691843E3691843236A18430843616A94
:10105000042903D1D4E90B13194308431060206815
:101060004069666A20F0070130460E4301270428D4
:101070000CD1A06A0643E06A40B12046FFF750FA5F
:1010800020B14020606584F83570BAE72068466179
:101090002046FFF731FA94F85C203F2191408160AF
:1010A000656584F835700020ACE700003F8010F0E3
:1010B0002DE9F0410446866D90F8340000250128A2
:1010C0000DD0012084F8340094F835700020012FF1
:1010D00007D084F8340002252846BDE8F0810220BC
:1010E000FBE7022784F8357060652046FFF742FA77
:1010F00094F85C103F208840B0602068016841F09F
:1011000016010160206C20B12068016841F00801DF
:1011100001602068016841F001010160DCE7000026
:1011200070B5044600F006F90546601C02D004487C
:101130000078044400F0FEF8401BA042FAD370BDD2
:10114000040000202DE9F84FDFF8BCA100220125A2
:1011500003264FF00F090AF1040BAAF1040E00BF99
:101160000B6805FA02F42340A34270D10F7907F00F
:101170000307012F01D0022F16D187684FEA4208DA
:1011800006FA08FC27EA0C07D1F80CC00CFA08FC98
:101190004CEA070CC0F808C04768A7430C79C4F3B1
:1011A000001494403C4344600C79E443A4070AD003
:1011B000C4684FEA420C06FA0CF7BC438F6807FA82
:1011C0000CF72743C7600C7904F00304022C12D1FA
:1011D000D40800EB840CDCF820405707FF0E09FA16
:1011E00007F824EA0804D1F8108008FA07F848EA5A
:1011F0000408CCF8208004684FEA420C06FA0CF789
:10120000BC430F7907F0030707FA0CF72743076081
:101210004C6814F4403F70D03C4C276847F480473A
:101220002760246822F0030704F480440094384CBB
:1012300007EB040CDCF8084897074FEA177809FA1F
:1012400008F7BC43334FB84202D1002724E054E0F2
:10125000314FB84201D101271EE0304FB84201D1D1
:10126000022719E02E4FB84201D1032714E02D4F79
:10127000B84201D104270FE02B4FB84201D1052716
:101280000AE02A4FB84201D1062705E0284FB842AC
:1012900001D1072700E0082707FA08F72743CCF811
:1012A0000878DAF800405746D1F804C09C435FEA5A
:1012B000CC2C00D51C433C60DBF800405F46D1F8E5
:1012C00004C09C435FEA8C2C00D51C433C60DEF8D4
:1012D00000407746D1F804C09C435FEA8C3C00D5BF
:1012E0001C433C60084F083F3C68D1F804C09C4355
:1012F0005FEACC3C00D51C433C60521C102AFFF432
:101300002FAFBDE8F88F0000083C01404438024090
:10131000003001400000024000040240000802408A
:10132000000C02400010024000140240001802406D
:10133000001C024001488068704700000400002043
:1013400002488168027811448160704704000020DF
:101350000B4810B5016841F400710160016841F467
:1013600080610160016841F480710160032000F038
:1013700099F80F2000F006F800F04AF8002010BDA0
:10138000003C024030B505461C4887B00024016887
:1013900041F001010160006806A900F00100009021
:1013A00001A800F02BF900F059F915494000B0FBF5
:1013B000F1F11548134A491E026040F2E732C0E9D4
:1013C0000324C0E90114846100F042FB040012D13F
:1013D0000D4800F06BFB04000DD1192000F034F82B
:1013E000102D07D200222946192000F03BF80748AB
:1013F000056000E0012407B0204630BD44380240BB
:1014000040420F0000000140BC0200200800002004
:101410000C4882B0016841F480410160006800F42A
:10142000804000900748001F016841F08051016032
:101430000068002200F0805000900F21901E02B042
:1014400000F010B844380240002809DB00F01F0209
:10145000012191404009800000F1E020C0F8001116
:1014600070470000F0B40E4B1B680C46C3F3022318
:10147000C3F10705042D00D90425191D072901D240
:10148000002300E0DB1E012606FA05F1491E21407B
:1014900099409E40761E16403143F0BC01F047B99A
:1014A0000CED00E0064900F0070208684FF6FF0364
:1014B000184040EA0220034A1043086070470000C9
:1014C0000CED00E00000FA052DE9F0470E4605009E
:1014D00065D0DFF81481D8F80000F7B200F00700FB
:1014E000B04207D288F80070D8F8000000F007007A
:1014F000B04254D128683D4C810712D5400703D52E
:10150000206840F4E05020602878000703D5206868
:1015100040F4604020602068A96820F0F000084393
:1015200020602878C0072DD0304968680839012824
:1015300012D0022813D0032811D009688907002986
:101540002DDA216821F0030101432160FFF7F2FE4B
:10155000814641F2883A0EE009688903EFE709689D
:101560008901ECE7FFF7E6FEA0EB0901514502D93E
:101570000320BDE8F0872068696800F00C00B0EB3C
:10158000810FEFD1D8F80010404601F00701B142B9
:1015900007D90770006800F00700B04201D00120B1
:1015A000E7E72878400705D52068E96820F4E0508F
:1015B000084320602878000706D52068296920F4B0
:1015C000604040EAC100206000F058F82168084AF5
:1015D000C1F30311515CC840064908600648006821
:1015E000FFF7D0FE0020C4E7003C0240083802406C
:1015F000CA2E000810000020080000200F22026000
:101600000C4A136803F003034360136803F0F0030C
:101610008360136803F4E053C36012684FF4E0532F
:1016200003EAD20202610448006800F00700086083
:101630007047000008380240003C02400448054959
:1016400000680968044AC1F38221515CC8407047B0
:101650001000002008380240DA2E0008044805492E
:1016600000680968044AC1F34231515CC8407047C0
:101670001000002008380240DA2E0008154810B586
:10168000006810F00C02144813D01449042A0FD03B
:10169000082A0ED10F4C241F2268236802F03F0253
:1016A0005B0207D52068C0F38810A0FB010106E0AB
:1016B000084610BD2168C1F38811A1FB0001002379
:1016C000FEF732FE2168C1F30141491C4900B0FB1D
:1016D000F1F010BD083802400024F40040787D018C
:1016E0002DE9F84F04006ED02078DFF84C93C00746
:1016F000A9F104054AD009F104000168C1F3810190
:10170000012908D00068C0F3810002280AD1D9F865
:101710000000400206D52868800337D5606800289D
:10172000E1D033E06068B0F5803F10D0B0F5A02F75
:10173000286810D020F480302860286820F48020A9
:1017400028606068A8B1FFF7F5FD06460DE028683F
:1017500040F48030F4E740F480202860F7E700BFD1
:10176000FFF7E8FD801B642873D828688003F7D54D
:101770000CE0FFF7DFFD064605E000BFFFF7DAFDEE
:10178000801B6428F0D828688003F7D42078DFF81D
:10179000AC8280074FF0000A3ED5A748001D0168C3
:1017A00011F00C0F08D00068C0F3810002280BD1A3
:1017B000D9F80000400207D42868800716D5E068F1
:1017C000012800D112E033E1E068B8B10120C8F887
:1017D0000000FFF7AFFD064605E000BFFFF7AAFDDA
:1017E000801B0228C0D828688007F7D5286821699F
:1017F00020F0F80040EAC10028600DE0C8F800A021
:10180000FFF798FD064604E0FFF794FD801B0228D1
:101810001FD828688007F7D42078000722D5864F84
:1018200087486169703771B101210160FFF782FD5E
:10183000064604E0FFF77EFD801B022809D83868C1
:101840008007F7D50EE0C0F800A0FFF773FD06464D
:1018500005E082E0FFF76EFD801B02287DD8386826
:101860008007F7D42078400768D5DFF8CCB100278F
:101870000BF13C0BDBF80000C0000BD4DBF80010D0
:1018800041F08051CBF80010DBF80000012700F098
:10189000805000906B4E3068C00510D4306840F422
:1018A00080703060FFF746FD009005E0FFF742FDD5
:1018B0000099401A022850D83068C005F6D55E4E0F
:1018C000A0686C3601280FD00528306810D020F0B1
:1018D00001003060306820F004003060A068B8B1CA
:1018E000FFF728FD00900FE0306840F00100F4E7BA
:1018F00040F004003060F7E7FFF71CFD0099411A43
:1019000041F28830814266D830688007F4D50EE015
:10191000FFF710FD009007E0FFF70CFD0099411A5A
:1019200041F28830814256D830688007F4D42FB114
:10193000DBF8001021F08051CBF80010A069C8B38B
:101940003D49091D0968C1F3810102294AD00228D5
:10195000504607D0C8F8600000E03CE0FFF7EAFC22
:1019600004463BE04746C8F86000FFF7E3FC064644
:1019700005E000BFFFF7DEFC801B02282BD828689B
:101980008001F7D4D4E907010843A16A2E4A490827
:1019900002EB0141626A41EA8211084394F82C107B
:1019A00040EA0161C9F8001001203866FFF7C2FC67
:1019B000044606E03EE000BFFFF7BCFC001B022827
:1019C00009D828688001F7D534E000BFFFF7B2FCE2
:1019D000001B022802D90320BDE8F88F2868800187
:1019E000F4D427E00128F7D0D9F80000E26900F428
:1019F000800191421CD1226A00F03F01914217D12F
:101A000047F6C071626A0140B1EB821F10D1A26A31
:101A10004FF0FF3300F4403103EB5202B1EB024FC1
:101A200006D194F82C1000F07060B0EB016F01D07B
:101A30000120D1E70020CFE70438024000004742F0
:101A4000800E4742007000400000FFFF7047704763
:101A500010B5040003D094F83D0010B107E0012058
:101A600010BD002084F83C00204600F01EF8022043
:101A700084F83D00211D206800F002FC012084F85C
:101A8000460084F83E0084F83F0084F8400084F863
:101A9000410084F8420084F8430084F8440084F84C
:101AA000450084F83D00002010BD704790F83D10BF
:101AB000012901D001207047022180F83D10016802
:101AC000CA6842F00102CA6000681149884214D015
:101AD000B0F1804F11D00F4988420ED00E49884294
:101AE0000BD00E49884208D00D49884205D00D49D7
:101AF000884202D00C49884204D1816801F0070174
:101B0000062903D0016841F00101016000207047FF
:101B1000000001400004004000080040000C0040AC
:101B200000040140004001400018004070472DE9CA
:101B3000F04104460068C66805694FF00007A90730
:101B400013D5B10711D5F91E016101202077206856
:101B500080698007204602D0FFF7E8FF04E000F02C
:101B60007EF8204600F07CF82777680716D57007C6
:101B700014D521686FF004000861022020772068E6
:101B8000806910F4407F204602D0FFF7CFFF04E0C9
:101B900000F065F8204600F063F82777280715D590
:101BA000300713D521686FF0080008610420207702
:101BB0002068C0698007204602D0FFF7B7FF04E025
:101BC00000F04DF8204600F04BF82777E80616D5D0
:101BD000F00614D521686FF0100008610820207706
:101BE0002068C06910F4407F204602D0FFF79EFFB6
:101BF00004E000F034F8204600F032F82777E807D8
:101C000008D0F00706D021686FF001000861204677
:101C100000F028F8280608D5300606D521686FF0B0
:101C2000800008612046FFF711FF680608D570069E
:101C300006D521686FF040000861204600F01CF8CE
:101C4000A8060AD5B00608D521686FF02000086103
:101C50002046BDE8F041FFF7FABEBDE8F0817047CD
:101C60007047000000680349884201D1FFF768BB54
:101C700070470000000001407047704710B50446EF
:101C80000068406994F84110C0F3C010212911D1B7
:101C900080B12068143050E8001F21F0800140E836
:101CA0000012002AF5D1A06B08B1FFF76CF82046AE
:101CB00000F0F8FB2068406994F84210C0F38010EF
:101CC000222911D180B12068143050E8001F21F082
:101CD000400140E80012002AF5D1E06B08B1FFF79F
:101CE00052F8204600F0B7FB002010BD70470000FE
:101CF000F8B5016804460868CA684B6910F00F0F10
:101D00004FF0000559D003F0010602F490773743F5
:101D100065D0C10705D0D10503D5616C41F0010143
:101D20006164410705D5D90703D0616C41F0020118
:101D30006164810705D5D90703D0616C41F00401C6
:101D40006164010707D502F02001314303D0616CC3
:101D500041F008016164616C00293AD0800604D525
:101D6000900602D5204600F0ABFB20684069616C0C
:101D7000C0F38010090700D460B3204600F06BFB6D
:101D800020684069400621D52068143050E8001FC3
:101D900021F0400140E80012002AF5D1E06BA8B123
:101DA0006E490165E06BFFF737F8002811D0E06B52
:101DB000016D01B0BDE8F040084783060FD59306DA
:101DC0000DD52046BDE8F84000F07ABB2046FFF76D
:101DD0008DFFF8BD2046FFF789FF6564F8BD266BCF
:101DE0002023012E7DD1C6067BD5D60679D508687D
:101DF0004868009048694FF00206400641D5E16B03
:101E0000086840680004000CE8D0A28D8242E5D941
:101E1000E085C869B0F5807F2DD020680C3050E88F
:101E2000001F21F4807140E80012002AF5D12068DB
:101E3000143050E8001F21F0010140E80012002A90
:101E4000F5D12068143050E8001F21F0400140E82F
:101E50000012002AF5D184F84230256320680C3046
:101E600050E8001F21F0100140E80012002AF5D1CF
:101E7000E06BFEF788FF6663A08DE18D401A81B2AA
:101E80002AE0A08DE18D401A81B2E08D0028A5D016
:101E90000029A3D022680C3252E8000F20F4907081
:101EA00042E80007002FF5D12068143050E8002FD9
:101EB00022F0010240E80027002FF5D184F84230DB
:101EC000256320680C3050E8002F22F0100240E813
:101ED0000023002BF5D166632046FFF7CEFEF8BD48
:101EE000FFE705062BD5150629D594F841002128D2
:101EF000F5D1A068B0F5805F01D12069B0B1206A4A
:101F0000411C2162216800784860E08C401E00047A
:101F1000000CE084E3D12068C16821F08001C16039
:101F20002068C16841F04001C160D8E7206A00889C
:101F3000C0F308004860206A801C2062E5E7400684
:101F4000CDD55006CBD5CA68204622F04002CA60E3
:101F500084F8413000F0A3F8C1E7000059230008DD
:101F600070B5040004D094F84100002510B106E0DB
:101F7000012070BD84F84050204600F023F8242052
:101F800084F841002068C16821F40051C1602046F6
:101F900000F0F8FA2068016921F49041016120689D
:101FA000416921F02A0141612068C16841F4005172
:101FB000C1606564202084F8410084F842006563B4
:101FC000002070BD70B586B0064614216846FEF745
:101FD00022FA25493068884243D124480025016807
:101FE00041F480210160006800F4802005901F48C2
:101FF0001038016841F0040101600068694600F092
:10200000040005904FF4406000900220CDE90105E6
:1020100003200390072004901548FFF793F8164C0F
:10202000144820604FF00060C4E901054014C4E981
:10203000035080106561C4E906504FF44030C4E994
:1020400008052046FEF7CAFF08B1FEF7A8FAF463B8
:10205000002205212720A663FFF704FA2720FFF7B7
:10206000F3F906B070BD000000480040403802405F
:1020700000080240286002405C02002090F84230D4
:10208000202B01D00220704721B11AB10023036335
:1020900000F0FEBA0120704700F05ABB704770474D
:1020A000FEE700000F4810B50D49016007214160AF
:1020B00000214FF480328160C0E903125201426175
:1020C000017641768176C17601774177FEF7E3FCB0
:1020D000002803D0BDE81040FEF761BA10BD000033
:1020E00000640040EC010020094808B5016841F493
:1020F000001101600068002200F40010009005212A
:102100000C20FFF7AFF9BDE808400C20FFF79CB9A1
:1021100030380240114808B5016841F00101016002
:10212000016801F001010091016841F008010160BE
:10213000016801F008010091016841F004010160AB
:10214000016801F004010091016841F08001016023
:10215000006800F08000009008BD000030380240A8
:102160000D4810B50B4901600C4941604FF4805196
:10217000816000210C22C160C0E904128161C1614B
:10218000FFF7EEFE002803D0BDE81040FEF707BAC7
:1021900010BD00000048004014020020A08601008D
:1021A000FEE7FEE710B5502080F31188BFF34F8F94
:1021B000BFF36F8F00F01AFE18B104494FF0805042
:1021C0000860002080F3118810BD000004ED00E0DD
:1021D00030B593B030216846FEF71DF914210CA8E4
:1021E000FEF719F91D480025016841F08051016092
:1021F000006800F0805011901948016841F4804156
:1022000001600068022400F48040119001200390D6
:1022100010200490009406940820CDE90750A820CF
:10222000CDE9090404200B906846FFF759FA08B17C
:1022300072B6FEE70CA90F2081E831004FF4A050E0
:102240000F904FF48050109005210CA8FFF73CF937
:10225000002801D072B6FEE713B030BD403802400E
:10226000007000400248016841F47001016070474D
:1022700088ED00E00148FFF75ABC0000BC020020D6
:10228000F0B50268294C2A4D2A4E2B4F2B4B4FF0AC
:10229000804CA04209D0604507D0A84205D0B0428A
:1022A00003D0B84201D0984204D122F0700E4A689F
:1022B00042EA0E02A0421BD0604519D0A84217D0B6
:1022C000B04215D0B84213D0984211D01C4DA8424C
:1022D0000ED01C4DA8420BD01B4DA84208D01B4D60
:1022E000A84205D01A4DA84202D01A4DA84203D1E7
:1022F00022F44075CA682A434D6922F080022A43BD
:1023000002608A68C2620A688262A04201D0984272
:1023100001D109690163012141610169C90703D044
:10232000016921F001010161F0BD000000000140E0
:102330000004004000080040000C00400004014080
:1023400000400140004401400048014000180040A6
:10235000001C00400020004010B5806B0021C185AA
:10236000C184FFF7C3FC10BD70B5846B2068406961
:1023700094F84110C0F3C0100025212904D118B1F0
:10238000E584204600F08EF82068406994F84210F9
:10239000C0F38010222904D118B1E585204600F051
:1023A0005AF8606C40F0100060642046FFF79EFC15
:1023B00070BD10B50146806B096809684FF00002D6
:1023C000C9052ED4C28501680C3151E8003F23F4C1
:1023D000807341E80034002CF5D10168143151E8D4
:1023E000003F23F0010341E80034002CF5D10168DF
:1023F000143151E8003F23F0400341E80034002C41
:10240000F5D1202180F84210016B012909D1016822
:102410000C3151E8003F23F0100341E80034002C58
:10242000F5D14263016B012902D0FFF735FE10BDE3
:10243000818DFFF722FC10BD10B5806B0121416337
:10244000016B012902D0FFF729FE10BD818D4908DB
:10245000FFF713FC10BD01680C3151E8002F22F486
:10246000907241E80023002BF5D10168143151E846
:10247000002F22F0010241E80023002BF5D1016B6F
:10248000012909D101680C3151E8002F22F0100216
:1024900041E80023002BF5D1202180F842100021D3
:1024A0000163704701680C3151E8002F22F0C0022F
:1024B00041E80023002BF5D1202180F8411070471E
:1024C00008B590F84210222901D0022008BD826888
:1024D0004FF480539A4201D1016921B1816A9A4235
:1024E0001BD04AB10AE00268816A5268C2F308024E
:1024F0000A80816A891C08E0026972B10268526828
:1025000002F07F020A70816A491C8162C18D491EF6
:102510000904090CC18503D01BE002685268F1E789
:102520000168CA6822F02002CA600168CA6822F401
:102530008072CA6001684A6922F001024A61202162
:1025400080F8421000214163026B012A03D0FFF79B
:10255000A3FD002008BD016301680C3151E8002F84
:1025600022F0100241E80023002BF5D101680A682F
:10257000D20602D50A6849680091818DFFF77DFB7C
:10258000E7E7000070B5044600680169E26821F4DD
:102590004051114301612169A068E2690843616902
:1025A000114308432168CA6849F20C639A43024305
:1025B000CA6020684169A26921F4407111434161F8
:1025C00031492068884202D03049884202D1FFF761
:1025D00045F801E0FFF732F8E2690023192164258C
:1025E0003226B2F5004F626828D0A0FB0101930F9C
:1025F0009200FDF799FE0146B0FBF5F06FF018026E
:10260000504301EB800006EB0010B0FBF5F000F04A
:10261000F002B1FBF5F002EB0012B1FBF5F06FF048
:102620001803584301EB800006EB0010B0FBF5F0F7
:1026300000F00F0021681044886070BDA0FB01010C
:1026400092185B41FDF770FE0146B0FBF5F0020108
:10265000B1FBF5F06FF01803584301EB800006EB77
:10266000C000B0FBF5F000F0F80002EB4002B1FB57
:10267000F5F0584301EB800006EBC000B0FBF5F02D
:1026800000F00700D6E700000010014000140140F0
:1026900038B5816204468285002013466064222298
:1026A00084F84220E56B1B4AEA63E56B1A4A2A6408
:1026B000E56B1A4AEA64E26B10650A462168E06B32
:1026C000091DFEF7F5FC206801684068009020694C
:1026D00048B120680C3050E8001F41F4807140E898
:1026E0000012002AF5D12068143050E8001F41F094
:1026F000010140E80012002AF5D12068143050E8AA
:10270000001F41F0400140E80012002AF5D10020EE
:1027100038BD0000B32300083924000869230008ED
:102720000148FFF7E5BA000014020020FEE70907A0
:10273000090E002804DB00F1E02080F80014704747
:1027400000F00F0000F1E02080F8141D7047000039
:1027500038B5244C606801680A68D243D2060FD4A9
:102760000A6849680091FFF789FA206800684068A4
:1027700008B900F03BF812221B496068FFF77EFCA5
:1027800019480188C1F30A0200F12E01A2F5806206
:102790000A8042788378D20842EA4312C2F30A02DE
:1027A000A2F580624A809A09C37842EA83020379DB
:1027B00042EA8322C2F30A02A2F580628A805A08A2
:1027C000437942EAC312C2F30A02A2F58062CA80C8
:1027D0009A090A72C3F301124A72008AA0F5806056
:1027E000888238BD50000020F4030020264910B52F
:1027F0004A78087802F0070340EA032301F1120047
:102800000380D3088A7802F03F0443EA44134380EC
:10281000CB78920942EA83030A7902F0010443EA81
:102820008423838053084A7902F00F0443EAC413D7
:10283000C38093090372C2F301124272CA88828173
:102840000A89C2814A8902820A7B82744A7BC274E5
:102850008A7B02F001030375C2F340034375C2F3A0
:1028600080038375C2F3C003C375C2F300130376FC
:10287000C2F340134376C2F380138376D209C27643
:10288000098A418110BD0000F40300200D4A10B5F3
:10289000C2E900100168CA6842F02002CA600168FB
:1028A000CA6842F01002CA6012220749FFF7E6FB2D
:1028B00005494FF480601231088048808880C880C4
:1028C000488110BD50000020F40300202DED028B44
:1028D00084B0FEF73DFDFFF77BFCFFF71BFCFFF725
:1028E00003FCFFF7DFFBFFF73BFC8C498C48FFF74D
:1028F000CDFF8C48FEF714FA8A4800F021F9022136
:102900008848FDF74EFE002637464FF4FA589FEDF3
:10291000868ADFED868A864C41F288394FF4804AF8
:1029200006EBC60000EB061004EB8005284600F01D
:1029300097F9CDE900780297D5F858C02846F0EE0F
:10294000481AB0EE681AF7EE080AB2EE040A4B46CF
:1029500052460121E047761C042EE1DB754F764D8F
:10296000764E04F1640A04F1C80904F59678787A81
:10297000032827D0B7F9040000EB4000400000EE28
:10298000100A2860B8EEC00A84ED010AB6F900000A
:10299000216E00EE100A6648B8EEC00A884795ED31
:1029A000000AB8EEC00A84ED1A0AB6F93000D4F86D
:1029B000C41000EE100A5046B8EEC00A884795EDE4
:1029C000000A2BE0B7F90600C8B300EB4000400056
:1029D00000EE100A2860B8EEC00A84ED010AB6F9CC
:1029E0000000216E00EE100A5148B8EEC00A884778
:1029F0002868404200EE100AB8EEC00A84ED1A0AB8
:102A0000B6F93000D4F8C41000EE100A5046B8EE03
:102A1000C00A88472868404200EE100AB8EEC00A93
:102A200084ED330AB6F96000D4F8281100EE100ADC
:102A30004846B8EEC00A884795ED000A3BE0FFE73C
:102A4000B7F9040000EB4000400000EE100A2860D7
:102A5000B8EEC00A84ED010AB6F90000216E00EE5E
:102A6000100A3348B8EEC00A884795ED000AB8EE60
:102A7000C00A84ED1A0AB6F93000D4F8C41000EE8A
:102A8000100A5046B8EEC00A88472868404200EE57
:102A9000100AB8EEC00A84ED330AB6F96000D4F823
:102AA000281100EE100A4846B8EEC00A8847286888
:102AB000404200EE100AB8EEC00A84ED4C0AB6F9A6
:102AC0009000D4F88C1100EE100A4046B8EEC00A0F
:102AD00088470A20FEF724FB94ED570ABDEEC00A92
:102AE00010EE100A00B2009094ED3E0ABDEEC00A4E
:102AF00010EE100A94ED250A03B2BDEEC00A10EEE6
:102B0000100A94ED0C0A02B2BDEEC00A10EE100AD3
:102B100001B2044800F0F2F829E700005C0200204E
:102B200014020020EC01002000000000CDCC4C3D40
:102B30005C00002022040020000000203804002057
:102B400000B58BB000210122CDE90612039100915E
:102B50000191029104910E21059108926946FDF7B9
:102B60009BFD0BB000BD10B504462DED028BB0EE01
:102B7000408AC06C2065FEF7DDFBE06494F85010DD
:102B8000401A84F8540084ED068AD4ED071AC4ED87
:102B9000081A94ED0C0A84ED0D0A94ED010A30EE4A
:102BA000480A84ED070AB5EEC00AF1EE10FA02DD1C
:102BB000F0EE400A01E0F1EE400A94ED101AF4EE56
:102BC000C10AF1EE10FA46DDD4ED030A20EE801AB8
:102BD00084ED091AD4ED0A0A94ED042A42EE000AA3
:102BE00030EE610AC4ED0A0AD4ED051A60EE211A2E
:102BF000C4ED0B1A94ED0F0AF4EEC00AF1EE10FAD0
:102C000001DD84ED0A0AD4ED0A0AB1EE400AF4EEC1
:102C1000C00AF1EE10FA02D3B0EE600A01E084EDD2
:102C20000A0A31EE000A70EE210AC4ED0C0A94ED96
:102C30000E0AF4EEC00AF1EE10FA01DD84ED0C0A82
:102C4000D4ED0C0AB1EE400AF4EEC00AF1EE10FA2F
:102C500001D284ED0C0A94ED0C0ABDEC028B10BD80
:102C6000034981650349C165034901667047000056
:102C70007D2C0008D52C0008672B00089DED003A3C
:102C80009DED022ADDED012AB8EE433A017080ED98
:102C9000113A80ED100A00EE103AB8EE400A80EDCD
:102CA0000F0A00EE102AB8EE400A80ED0E0AB8EEC8
:102CB000E20A80ED120AB8EEC20A80ED010A9FED29
:102CC000040A80ED0C0A0C30C0EC030A70470000C7
:102CD000000000000C3080EC030A70470648416B8E
:102CE000096829B1416BC968C96849688162704740
:102CF0004FF0FF31FAE700001400002070B58AB0F1
:102D000000244FF40076CDE900640E9D0894082657
:102D10000294CDE903468DF814400C0A8DF8184052
:102D20008DF81910110A8DF81A10190A8DF81C1057
:102D30008DF81D30290A8DF81E108DF81B208DF896
:102D40001F5008AB06AA6946FDF73DFC0AB070BDEE
:102D5000D0E9013201699A60D0E901235A604A68DA
:102D6000824201D182684A60002202610868401EE6
:102D700008600868704742684A6093688B6093688F
:102D80005960916008610168491C0160704700004A
:102D90001448016B11B10121C16170470021C1616B
:102DA0000169B1FA81F1C1F11F0101EB81020E4904
:102DB00051F822306BB101EB820101F108034A683E
:102DC00052684A609A4201D152684A60D1680160F3
:102DD0007047502080F31188BFF34F8FBFF36F8F80
:102DE000FEE7000014000020040300202DE9F0415C
:102DF0002F4C0026206B28B1A069401CA0613046F2
:102E0000BDE8F081E5686D1CE56013D1606B00687A
:102E100038B1502080F31188BFF34F8FBFF36F8F0D
:102E2000FEE7606BA16B6163A063206A401C2062B7
:102E3000FFF754FFA06ADFF87C80854209D3606BFE
:102E40000068A0B1606BC068C7687868854211D21D
:102E5000A0622068C06A00EB800158F821000128B8
:102E600000D90126E0690028C9D00126C7E74FF044
:102E7000FF30EDE7381DFFF76BFFB86A18B107F1B7
:102E80001800FFF765FFF96A0120226988401043A6
:102E9000206101EB810108EB8100391DFFF76BFF19
:102EA000F86A2168C96A8842C9D30126C7E70000C9
:102EB00014000020040300204FF04070E1EE100ADF
:102EC00070470006101600061016000000000000F3
:102ED00000000102030406070809000000000102C7
:102EE00003040000042F0008000000205C00000024
:102EF000C4010008602F00085C000020FC0A0000EC
:102F0000E0010008000000000100000010000000C7
:102F1000000000000024F400000000000000000099
:102F200000000000000000000000000000000000A1
:102F30000000000000000000000000000000000091
:102F40000000000000000000000000000000000081
:102F50000000000000000000000000000000000071
:040000050800018965
:00000001FF
